{
  "_format": "hh-sol-artifact-1",
  "contractName": "CampaignEscrow",
  "sourceName": "contracts/CampaignEscrow.sol",
  "abi": [
    {
      "inputs": [
        {
          "internalType": "address",
          "name": "_paymentToken",
          "type": "address"
        }
      ],
      "stateMutability": "nonpayable",
      "type": "constructor"
    },
    {
      "inputs": [
        {
          "internalType": "address",
          "name": "owner",
          "type": "address"
        }
      ],
      "name": "OwnableInvalidOwner",
      "type": "error"
    },
    {
      "inputs": [
        {
          "internalType": "address",
          "name": "account",
          "type": "address"
        }
      ],
      "name": "OwnableUnauthorizedAccount",
      "type": "error"
    },
    {
      "inputs": [],
      "name": "ReentrancyGuardReentrantCall",
      "type": "error"
    },
    {
      "inputs": [
        {
          "internalType": "address",
          "name": "token",
          "type": "address"
        }
      ],
      "name": "SafeERC20FailedOperation",
      "type": "error"
    },
    {
      "anonymous": false,
      "inputs": [
        {
          "indexed": true,
          "internalType": "uint256",
          "name": "campaignId",
          "type": "uint256"
        },
        {
          "indexed": true,
          "internalType": "address",
          "name": "brand",
          "type": "address"
        },
        {
          "indexed": true,
          "internalType": "address",
          "name": "creator",
          "type": "address"
        },
        {
          "indexed": false,
          "internalType": "uint256",
          "name": "budget",
          "type": "uint256"
        }
      ],
      "name": "CampaignCreated",
      "type": "event"
    },
    {
      "anonymous": false,
      "inputs": [
        {
          "indexed": true,
          "internalType": "uint256",
          "name": "campaignId",
          "type": "uint256"
        }
      ],
      "name": "DisputeRaised",
      "type": "event"
    },
    {
      "anonymous": false,
      "inputs": [
        {
          "indexed": true,
          "internalType": "uint256",
          "name": "campaignId",
          "type": "uint256"
        },
        {
          "indexed": false,
          "internalType": "bool",
          "name": "paidCreator",
          "type": "bool"
        }
      ],
      "name": "DisputeResolved",
      "type": "event"
    },
    {
      "anonymous": false,
      "inputs": [
        {
          "indexed": true,
          "internalType": "uint256",
          "name": "campaignId",
          "type": "uint256"
        },
        {
          "indexed": true,
          "internalType": "address",
          "name": "brand",
          "type": "address"
        },
        {
          "indexed": false,
          "internalType": "uint256",
          "name": "amount",
          "type": "uint256"
        }
      ],
      "name": "FundsDeposited",
      "type": "event"
    },
    {
      "anonymous": false,
      "inputs": [
        {
          "indexed": true,
          "internalType": "uint256",
          "name": "campaignId",
          "type": "uint256"
        },
        {
          "indexed": false,
          "internalType": "uint256",
          "name": "milestoneIndex",
          "type": "uint256"
        }
      ],
      "name": "MilestoneConfirmed",
      "type": "event"
    },
    {
      "anonymous": false,
      "inputs": [
        {
          "indexed": true,
          "internalType": "uint256",
          "name": "campaignId",
          "type": "uint256"
        },
        {
          "indexed": false,
          "internalType": "uint256",
          "name": "milestoneIndex",
          "type": "uint256"
        },
        {
          "indexed": false,
          "internalType": "uint256",
          "name": "refundAmount",
          "type": "uint256"
        }
      ],
      "name": "MilestoneExpiredCancelled",
      "type": "event"
    },
    {
      "anonymous": false,
      "inputs": [
        {
          "indexed": true,
          "internalType": "uint256",
          "name": "campaignId",
          "type": "uint256"
        },
        {
          "indexed": false,
          "internalType": "uint256",
          "name": "milestoneIndex",
          "type": "uint256"
        },
        {
          "indexed": false,
          "internalType": "uint256",
          "name": "newProgress",
          "type": "uint256"
        }
      ],
      "name": "MilestoneProgressUpdated",
      "type": "event"
    },
    {
      "anonymous": false,
      "inputs": [
        {
          "indexed": true,
          "internalType": "address",
          "name": "previousOwner",
          "type": "address"
        },
        {
          "indexed": true,
          "internalType": "address",
          "name": "newOwner",
          "type": "address"
        }
      ],
      "name": "OwnershipTransferred",
      "type": "event"
    },
    {
      "anonymous": false,
      "inputs": [
        {
          "indexed": true,
          "internalType": "uint256",
          "name": "campaignId",
          "type": "uint256"
        },
        {
          "indexed": false,
          "internalType": "uint256",
          "name": "milestoneIndex",
          "type": "uint256"
        },
        {
          "indexed": false,
          "internalType": "uint256",
          "name": "amount",
          "type": "uint256"
        },
        {
          "indexed": false,
          "internalType": "address",
          "name": "recipient",
          "type": "address"
        }
      ],
      "name": "PaymentReleased",
      "type": "event"
    },
    {
      "anonymous": false,
      "inputs": [
        {
          "indexed": true,
          "internalType": "uint256",
          "name": "campaignId",
          "type": "uint256"
        },
        {
          "indexed": false,
          "internalType": "uint256",
          "name": "totalRefunded",
          "type": "uint256"
        }
      ],
      "name": "UncompletedMilestonesRefunded",
      "type": "event"
    },
    {
      "inputs": [
        {
          "internalType": "uint256",
          "name": "",
          "type": "uint256"
        }
      ],
      "name": "campaigns",
      "outputs": [
        {
          "internalType": "address",
          "name": "brand",
          "type": "address"
        },
        {
          "internalType": "address",
          "name": "creator",
          "type": "address"
        },
        {
          "internalType": "uint256",
          "name": "budget",
          "type": "uint256"
        },
        {
          "internalType": "uint256",
          "name": "depositedAmount",
          "type": "uint256"
        },
        {
          "internalType": "bool",
          "name": "isDisputed",
          "type": "bool"
        },
        {
          "internalType": "bool",
          "name": "isResolved",
          "type": "bool"
        },
        {
          "internalType": "bool",
          "name": "isPaused",
          "type": "bool"
        },
        {
          "internalType": "bool",
          "name": "exists",
          "type": "bool"
        }
      ],
      "stateMutability": "view",
      "type": "function"
    },
    {
      "inputs": [
        {
          "internalType": "uint256",
          "name": "campaignId",
          "type": "uint256"
        },
        {
          "internalType": "uint256",
          "name": "milestoneIndex",
          "type": "uint256"
        }
      ],
      "name": "cancelExpiredMilestone",
      "outputs": [],
      "stateMutability": "nonpayable",
      "type": "function"
    },
    {
      "inputs": [
        {
          "internalType": "uint256",
          "name": "campaignId",
          "type": "uint256"
        },
        {
          "internalType": "uint256",
          "name": "milestoneIndex",
          "type": "uint256"
        }
      ],
      "name": "confirmMilestone",
      "outputs": [],
      "stateMutability": "nonpayable",
      "type": "function"
    },
    {
      "inputs": [
        {
          "internalType": "address",
          "name": "creator",
          "type": "address"
        },
        {
          "internalType": "uint256",
          "name": "budget",
          "type": "uint256"
        },
        {
          "components": [
            {
              "internalType": "string",
              "name": "description",
              "type": "string"
            },
            {
              "internalType": "string",
              "name": "requiredAction",
              "type": "string"
            },
            {
              "internalType": "uint128",
              "name": "targetValue",
              "type": "uint128"
            },
            {
              "internalType": "uint128",
              "name": "paymentAmount",
              "type": "uint128"
            },
            {
              "internalType": "uint128",
              "name": "currentProgress",
              "type": "uint128"
            },
            {
              "internalType": "uint64",
              "name": "deadline",
              "type": "uint64"
            },
            {
              "internalType": "bool",
              "name": "isCompleted",
              "type": "bool"
            },
            {
              "internalType": "bool",
              "name": "isPaid",
              "type": "bool"
            }
          ],
          "internalType": "struct CampaignEscrow.Milestone[]",
          "name": "_milestones",
          "type": "tuple[]"
        }
      ],
      "name": "createCampaign",
      "outputs": [
        {
          "internalType": "uint256",
          "name": "campaignId",
          "type": "uint256"
        }
      ],
      "stateMutability": "nonpayable",
      "type": "function"
    },
    {
      "inputs": [
        {
          "internalType": "uint256",
          "name": "campaignId",
          "type": "uint256"
        }
      ],
      "name": "depositFunds",
      "outputs": [],
      "stateMutability": "nonpayable",
      "type": "function"
    },
    {
      "inputs": [
        {
          "internalType": "uint256",
          "name": "campaignId",
          "type": "uint256"
        }
      ],
      "name": "disputeCampaign",
      "outputs": [],
      "stateMutability": "nonpayable",
      "type": "function"
    },
    {
      "inputs": [],
      "name": "getContractBalance",
      "outputs": [
        {
          "internalType": "uint256",
          "name": "",
          "type": "uint256"
        }
      ],
      "stateMutability": "view",
      "type": "function"
    },
    {
      "inputs": [
        {
          "internalType": "uint256",
          "name": "campaignId",
          "type": "uint256"
        },
        {
          "internalType": "uint256",
          "name": "milestoneIndex",
          "type": "uint256"
        }
      ],
      "name": "getMilestoneProgressPercentage",
      "outputs": [
        {
          "internalType": "uint256",
          "name": "",
          "type": "uint256"
        }
      ],
      "stateMutability": "view",
      "type": "function"
    },
    {
      "inputs": [
        {
          "internalType": "uint256",
          "name": "campaignId",
          "type": "uint256"
        },
        {
          "internalType": "uint256",
          "name": "milestoneIndex",
          "type": "uint256"
        }
      ],
      "name": "getMilestoneStatus",
      "outputs": [
        {
          "internalType": "bool",
          "name": "isCompleted",
          "type": "bool"
        },
        {
          "internalType": "bool",
          "name": "isPaid",
          "type": "bool"
        },
        {
          "internalType": "uint256",
          "name": "paymentAmount",
          "type": "uint256"
        }
      ],
      "stateMutability": "view",
      "type": "function"
    },
    {
      "inputs": [
        {
          "internalType": "uint256",
          "name": "campaignId",
          "type": "uint256"
        }
      ],
      "name": "getMilestones",
      "outputs": [
        {
          "components": [
            {
              "internalType": "string",
              "name": "description",
              "type": "string"
            },
            {
              "internalType": "string",
              "name": "requiredAction",
              "type": "string"
            },
            {
              "internalType": "uint128",
              "name": "targetValue",
              "type": "uint128"
            },
            {
              "internalType": "uint128",
              "name": "paymentAmount",
              "type": "uint128"
            },
            {
              "internalType": "uint128",
              "name": "currentProgress",
              "type": "uint128"
            },
            {
              "internalType": "uint64",
              "name": "deadline",
              "type": "uint64"
            },
            {
              "internalType": "bool",
              "name": "isCompleted",
              "type": "bool"
            },
            {
              "internalType": "bool",
              "name": "isPaid",
              "type": "bool"
            }
          ],
          "internalType": "struct CampaignEscrow.Milestone[]",
          "name": "",
          "type": "tuple[]"
        }
      ],
      "stateMutability": "view",
      "type": "function"
    },
    {
      "inputs": [],
      "name": "getTotalCampaigns",
      "outputs": [
        {
          "internalType": "uint256",
          "name": "",
          "type": "uint256"
        }
      ],
      "stateMutability": "view",
      "type": "function"
    },
    {
      "inputs": [
        {
          "internalType": "uint256",
          "name": "",
          "type": "uint256"
        },
        {
          "internalType": "uint256",
          "name": "",
          "type": "uint256"
        }
      ],
      "name": "milestones",
      "outputs": [
        {
          "internalType": "string",
          "name": "description",
          "type": "string"
        },
        {
          "internalType": "string",
          "name": "requiredAction",
          "type": "string"
        },
        {
          "internalType": "uint128",
          "name": "targetValue",
          "type": "uint128"
        },
        {
          "internalType": "uint128",
          "name": "paymentAmount",
          "type": "uint128"
        },
        {
          "internalType": "uint128",
          "name": "currentProgress",
          "type": "uint128"
        },
        {
          "internalType": "uint64",
          "name": "deadline",
          "type": "uint64"
        },
        {
          "internalType": "bool",
          "name": "isCompleted",
          "type": "bool"
        },
        {
          "internalType": "bool",
          "name": "isPaid",
          "type": "bool"
        }
      ],
      "stateMutability": "view",
      "type": "function"
    },
    {
      "inputs": [],
      "name": "owner",
      "outputs": [
        {
          "internalType": "address",
          "name": "",
          "type": "address"
        }
      ],
      "stateMutability": "view",
      "type": "function"
    },
    {
      "inputs": [],
      "name": "paymentToken",
      "outputs": [
        {
          "internalType": "contract IERC20",
          "name": "",
          "type": "address"
        }
      ],
      "stateMutability": "view",
      "type": "function"
    },
    {
      "inputs": [
        {
          "internalType": "uint256",
          "name": "campaignId",
          "type": "uint256"
        }
      ],
      "name": "refundUncompletedMilestones",
      "outputs": [],
      "stateMutability": "nonpayable",
      "type": "function"
    },
    {
      "inputs": [],
      "name": "renounceOwnership",
      "outputs": [],
      "stateMutability": "nonpayable",
      "type": "function"
    },
    {
      "inputs": [
        {
          "internalType": "uint256",
          "name": "campaignId",
          "type": "uint256"
        },
        {
          "internalType": "bool",
          "name": "payCreator",
          "type": "bool"
        }
      ],
      "name": "resolveDispute",
      "outputs": [],
      "stateMutability": "nonpayable",
      "type": "function"
    },
    {
      "inputs": [
        {
          "internalType": "uint256",
          "name": "campaignId",
          "type": "uint256"
        }
      ],
      "name": "togglePauseCampaign",
      "outputs": [],
      "stateMutability": "nonpayable",
      "type": "function"
    },
    {
      "inputs": [
        {
          "internalType": "address",
          "name": "newOwner",
          "type": "address"
        }
      ],
      "name": "transferOwnership",
      "outputs": [],
      "stateMutability": "nonpayable",
      "type": "function"
    },
    {
      "inputs": [
        {
          "internalType": "uint256",
          "name": "campaignId",
          "type": "uint256"
        },
        {
          "internalType": "uint256",
          "name": "milestoneIndex",
          "type": "uint256"
        },
        {
          "internalType": "uint128",
          "name": "progress",
          "type": "uint128"
        }
      ],
      "name": "updateProgress",
      "outputs": [],
      "stateMutability": "nonpayable",
      "type": "function"
    }
  ],
  "bytecode": "0x60a06040523480156200001157600080fd5b50604051620031fd380380620031fd833981016040819052620000349162000146565b33806200005c57604051631e4fbdf760e01b8152600060048201526024015b60405180910390fd5b6200006781620000f6565b5060017f9b779b17422d0df92223018b32b4d1fa46e071723d6817e2486d003becc55f00556001600160a01b038116620000e45760405162461bcd60e51b815260206004820152601560248201527f496e76616c696420746f6b656e20616464726573730000000000000000000000604482015260640162000053565b6001600160a01b031660805262000178565b600080546001600160a01b038381166001600160a01b0319831681178455604051919092169283917f8be0079c531659141344cd1fd0a4f28419497f9722a3daafe3b4186f6b6457e09190a35050565b6000602082840312156200015957600080fd5b81516001600160a01b03811681146200017157600080fd5b9392505050565b60805161303f620001be60003960008181610279015281816106ba01528181610f7501528181611123015281816113e5015281816117e601526126cf015261303f6000f3fe608060405234801561001057600080fd5b506004361061012c5760003560e01c806342c549c0116100ad578063b334e3d711610071578063b334e3d71461032d578063e8049da114610340578063ef3d127214610370578063f2fde38b14610383578063f60b90391461039657600080fd5b806342c549c0146102d95780636f9fb98a146102f9578063715018a6146103015780638da5cb5b14610309578063b0e36b8f1461031a57600080fd5b80631c376c63116100f45780631c376c631461023a57806321dc245e146102615780633013ce291461027457806334b25ee2146102b35780633b76594d146102c657600080fd5b80630ad365fc146101315780630d6fc9b614610146578063141961bc1461015957806316f43dd4146102155780631922dbb014610227575b600080fd5b61014461013f366004612947565b6103a9565b005b610144610154366004612947565b61073b565b6101c2610167366004612947565b6001602081905260009182526040909120805491810154600282015460038301546004909301546001600160a01b039485169490921692909160ff808216916101008104821691620100008204811691630100000090041688565b604080516001600160a01b03998a16815298909716602089015295870194909452606086019290925215156080850152151560a0840152151560c0830152151560e0820152610100015b60405180910390f35b6003545b60405190815260200161020c565b610219610235366004612960565b6108be565b61024d610248366004612960565b6109a6565b60405161020c9897969594939291906129c8565b61014461026f366004612947565b610b3f565b61029b7f000000000000000000000000000000000000000000000000000000000000000081565b6040516001600160a01b03909116815260200161020c565b6101446102c1366004612a3d565b610d0e565b6101446102d4366004612947565b610ff9565b6102ec6102e7366004612947565b61119b565b60405161020c9190612a72565b6102196113cd565b61014461145d565b6000546001600160a01b031661029b565b610144610328366004612960565b611471565b61014461033b366004612b81565b6118b5565b61035361034e366004612960565b611b7a565b60408051931515845291151560208401529082015260600161020c565b61021961037e366004612bcd565b611c4f565b610144610391366004612c56565b61239a565b6101446103a4366004612960565b6123d5565b6103b1612730565b600081815260016020526040902060048101546301000000900460ff166103f35760405162461bcd60e51b81526004016103ea90612c78565b60405180910390fd5b6000546001600160a01b0316331480610415575080546001600160a01b031633145b6104575760405162461bcd60e51b815260206004820152601360248201527213db9b1e4818591b5a5b881bdc88189c985b99606a1b60448201526064016103ea565b80600201548160030154146104a65760405162461bcd60e51b8152602060048201526015602482015274119d5b991cc81b995d995c8819195c1bdcda5d1959605a1b60448201526064016103ea565b600481015460ff16156104cb5760405162461bcd60e51b81526004016103ea90612caf565b6004810154610100900460ff16156104f55760405162461bcd60e51b81526004016103ea90612ce6565b60008281526002602052604081208054825b818110156106645782818154811061052157610521612d1d565b906000526020600020906004020160030160189054906101000a900460ff1615801561057b575082818154811061055a5761055a612d1d565b906000526020600020906004020160030160199054906101000a900460ff16155b1561065c576000546001600160a01b031633148015906105d057508281815481106105a8576105a8612d1d565b6000918252602090912060049091020160030154600160801b90046001600160401b03164211155b156105dd57600101610507565b8281815481106105ef576105ef612d1d565b600091825260209091206004909102016002015461061d90600160801b90046001600160801b031685612d49565b9350600183828154811061063357610633612d1d565b906000526020600020906004020160030160196101000a81548160ff0219169083151502179055505b600101610507565b50600083116106aa5760405162461bcd60e51b8152602060048201526012602482015271139bc8199d5b991cc81d1bc81c99599d5b9960721b60448201526064016103ea565b83546106e3906001600160a01b037f0000000000000000000000000000000000000000000000000000000000000000811691168561274c565b847fe2e503aa525557ecdee08afba400bc0418ccdb1a0686c88b9df773117dfd74ee8460405161071591815260200190565b60405180910390a2505050506107386001600080516020612fea83398151915255565b50565b600081815260016020526040902060048101546301000000900460ff166107745760405162461bcd60e51b81526004016103ea90612c78565b80546001600160a01b031633148061079657506000546001600160a01b031633145b6107ee5760405162461bcd60e51b8152602060048201526024808201527f4f6e6c79206272616e64206f722061646d696e2063616e20746f67676c6520706044820152636175736560e01b60648201526084016103ea565b600481015460ff16156108435760405162461bcd60e51b815260206004820181905260248201527f43616e6e6f7420706175736520612064697370757465642063616d706169676e60448201526064016103ea565b6004810154610100900460ff161561089d5760405162461bcd60e51b815260206004820181905260248201527f43616e6e6f742070617573652061207265736f6c7665642063616d706169676e60448201526064016103ea565b600401805462ff0000198116620100009182900460ff161590910217905550565b6000828152600160205260408120600401546301000000900460ff166108f65760405162461bcd60e51b81526004016103ea90612c78565b60008381526002602052604090205482106109235760405162461bcd60e51b81526004016103ea90612d5c565b600083815260026020526040812080548490811061094357610943612d1d565b6000918252602082206002600490920201908101549092506001600160801b031690036109745760009150506109a0565b600281015460038201546001600160801b0391821691166064028161099b5761099b612d93565b049150505b92915050565b600260205281600052604060002081815481106109c257600080fd5b9060005260206000209060040201600091509150508060000180546109e690612da9565b80601f0160208091040260200160405190810160405280929190818152602001828054610a1290612da9565b8015610a5f5780601f10610a3457610100808354040283529160200191610a5f565b820191906000526020600020905b815481529060010190602001808311610a4257829003601f168201915b505050505090806001018054610a7490612da9565b80601f0160208091040260200160405190810160405280929190818152602001828054610aa090612da9565b8015610aed5780601f10610ac257610100808354040283529160200191610aed565b820191906000526020600020905b815481529060010190602001808311610ad057829003601f168201915b50505050600283015460039093015491926001600160801b0380821693600160801b92839004821693509081169181046001600160401b031690600160c01b810460ff90811691600160c81b90041688565b600081815260016020526040902060048101546301000000900460ff16610b785760405162461bcd60e51b81526004016103ea90612c78565b8060020154816003015414610bcf5760405162461bcd60e51b815260206004820181905260248201527f43616e6e6f74206469737075746520756e66756e6465642063616d706169676e60448201526064016103ea565b80546001600160a01b0316331480610bf3575060018101546001600160a01b031633145b610c515760405162461bcd60e51b815260206004820152602960248201527f4f6e6c79206272616e64206f722063726561746f722063616e2072616973652060448201526861206469737075746560b81b60648201526084016103ea565b600481015460ff1615610ca65760405162461bcd60e51b815260206004820152601960248201527f43616d706169676e20616c72656164792064697370757465640000000000000060448201526064016103ea565b6004810154610100900460ff1615610cd05760405162461bcd60e51b81526004016103ea90612ce6565b60048101805460ff1916600117905560405182907f04901f83201c8724eadf084436db8aa391820bae6d11f9f78a17edb6f2eef3cf90600090a25050565b610d16612786565b610d1e612730565b600082815260016020526040902060048101546301000000900460ff16610d575760405162461bcd60e51b81526004016103ea90612c78565b600481015460ff16610dab5760405162461bcd60e51b815260206004820152601860248201527f43616d706169676e206973206e6f74206469737075746564000000000000000060448201526064016103ea565b6004810154610100900460ff1615610e055760405162461bcd60e51b815260206004820152601860248201527f4469737075746520616c7265616479207265736f6c766564000000000000000060448201526064016103ea565b8060020154816003015414610e525760405162461bcd60e51b815260206004820152601360248201527210d85b5c185a59db881b9bdd08199d5b991959606a1b60448201526064016103ea565b60008381526002602052604081208054825b81811015610f2857828181548110610e7e57610e7e612d1d565b906000526020600020906004020160030160199054906101000a900460ff16610f2057828181548110610eb357610eb3612d1d565b6000918252602090912060049091020160020154610ee190600160801b90046001600160801b031685612d49565b93506001838281548110610ef757610ef7612d1d565b906000526020600020906004020160030160196101000a81548160ff0219169083151502179055505b600101610e64565b5060048401805461ffff19166101001790558215610f9e57600085610f575784546001600160a01b0316610f66565b60018501546001600160a01b03165b9050610f9c6001600160a01b037f000000000000000000000000000000000000000000000000000000000000000016828661274c565b505b857f5a87909bff68caaaaf0b3fd9c74eeccc928832f879315e5c6fb7a73612f26c0c86604051610fd2911515815260200190565b60405180910390a250505050610ff56001600080516020612fea83398151915255565b5050565b611001612730565b600081815260016020526040902060048101546301000000900460ff1661103a5760405162461bcd60e51b81526004016103ea90612c78565b80546001600160a01b031633146110935760405162461bcd60e51b815260206004820181905260248201527f4f6e6c7920746865206272616e642063616e206465706f7369742066756e647360448201526064016103ea565b6003810154156110e55760405162461bcd60e51b815260206004820152601760248201527f46756e647320616c7265616479206465706f736974656400000000000000000060448201526064016103ea565b600481015460ff161561110a5760405162461bcd60e51b81526004016103ea90612caf565b60028101546003820181905561114b6001600160a01b037f0000000000000000000000000000000000000000000000000000000000000000163330846127b3565b604051818152339084907fe030e47e27825a2ad1b19e4cf2e70bfbfb3124af275c7727a82b114ba7b29a859060200160405180910390a350506107386001600080516020612fea83398151915255565b6000818152600160205260409020600401546060906301000000900460ff166111d65760405162461bcd60e51b81526004016103ea90612c78565b600082815260026020908152604080832080548251818502810185019093528083529193909284015b828210156113c257838290600052602060002090600402016040518061010001604052908160008201805461123390612da9565b80601f016020809104026020016040519081016040528092919081815260200182805461125f90612da9565b80156112ac5780601f10611281576101008083540402835291602001916112ac565b820191906000526020600020905b81548152906001019060200180831161128f57829003601f168201915b505050505081526020016001820180546112c590612da9565b80601f01602080910402602001604051908101604052809291908181526020018280546112f190612da9565b801561133e5780601f106113135761010080835404028352916020019161133e565b820191906000526020600020905b81548152906001019060200180831161132157829003601f168201915b505050918352505060028201546001600160801b03808216602080850191909152600160801b928390048216604085015260039094015490811660608401529081046001600160401b03166080830152600160c01b810460ff908116151560a0840152600160c81b90910416151560c09091015290825260019290920191016111ff565b505050509050919050565b6040516370a0823160e01b81523060048201526000907f00000000000000000000000000000000000000000000000000000000000000006001600160a01b0316906370a0823190602401602060405180830381865afa158015611434573d6000803e3d6000fd5b505050506040513d601f19601f820116820180604052508101906114589190612de3565b905090565b611465612786565b61146f60006127ef565b565b611479612730565b600082815260016020526040902060048101546301000000900460ff166114b25760405162461bcd60e51b81526004016103ea90612c78565b80546001600160a01b03163314806114d457506000546001600160a01b031633145b6115335760405162461bcd60e51b815260206004820152602a60248201527f4f6e6c79206272616e64206f722061646d696e2063616e20636f6e6669726d206044820152696d696c6573746f6e657360b01b60648201526084016103ea565b600481015460ff16156115585760405162461bcd60e51b81526004016103ea90612caf565b600481015462010000900460ff16156115b35760405162461bcd60e51b815260206004820152601c60248201527f43616d706169676e2069732063757272656e746c79207061757365640000000060448201526064016103ea565b6004810154610100900460ff16156115dd5760405162461bcd60e51b81526004016103ea90612ce6565b80600201548160030154146116345760405162461bcd60e51b815260206004820152601760248201527f46756e6473206e6f7420796574206465706f736974656400000000000000000060448201526064016103ea565b60008381526002602052604090205482106116615760405162461bcd60e51b81526004016103ea90612d5c565b600083815260026020526040812080548490811061168157611681612d1d565b906000526020600020906004020190508060030160189054906101000a900460ff16156116f05760405162461bcd60e51b815260206004820152601b60248201527f4d696c6573746f6e6520616c726561647920636f6e6669726d6564000000000060448201526064016103ea565b6003810154600160c81b900460ff16156117455760405162461bcd60e51b8152602060048201526016602482015275135a5b195cdd1bdb9948185b1c9958591e481c185a5960521b60448201526064016103ea565b6003810154600160801b90046001600160401b03164211156117a55760405162461bcd60e51b8152602060048201526019602482015278135a5b195cdd1bdb9948191958591b1a5b99481c185cdcd959603a1b60448201526064016103ea565b60038101805461ffff60c01b191661010160c01b17905560028101546001830154600160801b9091046001600160801b03169061180f906001600160a01b037f0000000000000000000000000000000000000000000000000000000000000000811691168361274c565b847f20948865da36c856e324c56f900290f6b201c6ada94317ebc097bc8e0769e2028560405161184191815260200190565b60405180910390a2600183015460408051868152602081018490526001600160a01b039092169082015285907ff7d86d936d4a372087dc5e98845d8d8cb50493399f40cde4c779db4d94af5a23906060015b60405180910390a2505050610ff56001600080516020612fea83398151915255565b600083815260016020526040902060048101546301000000900460ff166118ee5760405162461bcd60e51b81526004016103ea90612c78565b80546001600160a01b031633148061191057506000546001600160a01b031633145b61196c5760405162461bcd60e51b815260206004820152602760248201527f4f6e6c79206272616e64206f722061646d696e2063616e207570646174652070604482015266726f677265737360c81b60648201526084016103ea565b600481015460ff16156119915760405162461bcd60e51b81526004016103ea90612caf565b60008481526002602052604090205483106119be5760405162461bcd60e51b81526004016103ea90612d5c565b60008481526002602052604081208054859081106119de576119de612d1d565b906000526020600020906004020190508060030160189054906101000a900460ff1615611a4d5760405162461bcd60e51b815260206004820152601b60248201527f4d696c6573746f6e6520616c726561647920636f6d706c65746564000000000060448201526064016103ea565b6003810154600160801b90046001600160401b0316421115611aad5760405162461bcd60e51b8152602060048201526019602482015278135a5b195cdd1bdb9948191958591b1a5b99481c185cdcd959603a1b60448201526064016103ea565b60028101546001600160801b039081169084161115611b0e5760405162461bcd60e51b815260206004820152601760248201527f50726f677265737320657863656564732074617267657400000000000000000060448201526064016103ea565b6003810180546fffffffffffffffffffffffffffffffff19166001600160801b03851690811790915560408051868152602081019290925286917ff2771210a18e731a49e375107777d33f0e9a1a4311bfcc25c6fe60717b58a037910160405180910390a25050505050565b600082815260016020526040812060040154819081906301000000900460ff16611bb65760405162461bcd60e51b81526004016103ea90612c78565b6000858152600260205260409020548410611be35760405162461bcd60e51b81526004016103ea90612d5c565b6000858152600260205260408120805486908110611c0357611c03612d1d565b600091825260209091206004909102016003810154600290910154600160c01b820460ff90811699600160c81b909304169750600160801b90046001600160801b031695509350505050565b60006001600160a01b038516611ca75760405162461bcd60e51b815260206004820152601760248201527f496e76616c69642063726561746f72206164647265737300000000000000000060448201526064016103ea565b336001600160a01b03861603611d0b5760405162461bcd60e51b8152602060048201526024808201527f4272616e6420616e642063726561746f722063616e6e6f74206265207468652060448201526373616d6560e01b60648201526084016103ea565b60008411611d5b5760405162461bcd60e51b815260206004820152601d60248201527f427564676574206d7573742062652067726561746572207468616e203000000060448201526064016103ea565b81611da85760405162461bcd60e51b815260206004820181905260248201527f4d7573742068617665206174206c65617374206f6e65206d696c6573746f6e6560448201526064016103ea565b600082815b81811015611f2b576000868683818110611dc957611dc9612d1d565b9050602002810190611ddb9190612dfc565b611dec906080810190606001612e1c565b6001600160801b031611611e4d5760405162461bcd60e51b815260206004820152602260248201527f45616368206d696c6573746f6e65206d75737420686176652061207061796d656044820152611b9d60f21b60648201526084016103ea565b42868683818110611e6057611e60612d1d565b9050602002810190611e729190612dfc565b611e839060c081019060a001612e37565b6001600160401b031611611ed95760405162461bcd60e51b815260206004820152601e60248201527f446561646c696e65206d75737420626520696e2074686520667574757265000060448201526064016103ea565b858582818110611eeb57611eeb612d1d565b9050602002810190611efd9190612dfc565b611f0e906080810190606001612e1c565b611f21906001600160801b031684612d49565b9250600101611dad565b50858214611f8e5760405162461bcd60e51b815260206004820152602a60248201527f4d696c6573746f6e65207061796d656e7473206d75737420657175616c20746f6044820152691d185b08189d5919d95d60b21b60648201526084016103ea565b60038054906000611f9e83612e60565b9091555050600380546040805161010080820183523382526001600160a01b038c811660208085019182528486018e81526000606087018181526080880182815260a0890183815260c08a01848152600160e08c018181528e8752978190529b85209a518b54908a166001600160a01b0319918216178c5597519b8b0180549c9099169b9097169a909a1790965591516002880155905198860198909855915160049094018054955191519251151563010000000263ff0000001993151562010000029390931663ffff00001992151590940261ff00199515159590951661ffff199096169590951793909317929092161717905593505b8181101561234157600260008581526020019081526020016000206040518061010001604052808888858181106120cf576120cf612d1d565b90506020028101906120e19190612dfc565b6120eb9080612e79565b8080601f01602080910402602001604051908101604052809392919081815260200183838082843760009201919091525050509082525060200188888581811061213757612137612d1d565b90506020028101906121499190612dfc565b612157906020810190612e79565b8080601f0160208091040260200160405190810160405280939291908181526020018383808284376000920191909152505050908252506020018888858181106121a3576121a3612d1d565b90506020028101906121b59190612dfc565b6121c6906060810190604001612e1c565b6001600160801b031681526020018888858181106121e6576121e6612d1d565b90506020028101906121f89190612dfc565b612209906080810190606001612e1c565b6001600160801b031681526000602082015260400188888581811061223057612230612d1d565b90506020028101906122429190612dfc565b6122539060c081019060a001612e37565b6001600160401b0316815260006020808301829052604090920181905283546001810185559381522081519192600402019081906122919082612f2a565b50602082015160018201906122a69082612f2a565b50604082015160608301516001600160801b03918216600160801b918316820217600284015560808401516003909301805460a086015160c087015160e090970151959094166001600160c01b0319909116176001600160401b039093169091029190911761ffff60c01b1916600160c01b9315159390930260ff60c81b191692909217600160c81b91151591909102179055600101612096565b50866001600160a01b0316336001600160a01b0316847f57d8cc51cef40f8c9c48aef055b6159e7279eb7281514602c8fe98d49bb15aab8960405161238891815260200190565b60405180910390a45050949350505050565b6123a2612786565b6001600160a01b0381166123cc57604051631e4fbdf760e01b8152600060048201526024016103ea565b610738816127ef565b6123dd612730565b600082815260016020526040902060048101546301000000900460ff166124165760405162461bcd60e51b81526004016103ea90612c78565b80546001600160a01b0316331461247f5760405162461bcd60e51b815260206004820152602760248201527f4f6e6c79206272616e642063616e2063616e63656c2065787069726564206d696044820152666c6573746f6e6560c81b60648201526084016103ea565b80600201548160030154146124ce5760405162461bcd60e51b8152602060048201526015602482015274119d5b991cc81b995d995c8819195c1bdcda5d1959605a1b60448201526064016103ea565b600481015460ff16156124f35760405162461bcd60e51b81526004016103ea90612caf565b6004810154610100900460ff161561251d5760405162461bcd60e51b81526004016103ea90612ce6565b600083815260026020526040902054821061254a5760405162461bcd60e51b81526004016103ea90612d5c565b600083815260026020526040812080548490811061256a5761256a612d1d565b906000526020600020906004020190508060030160189054906101000a900460ff16156125d95760405162461bcd60e51b815260206004820152601e60248201527f4d696c6573746f6e6520697320616c726561647920636f6d706c65746564000060448201526064016103ea565b6003810154600160c81b900460ff161561262e5760405162461bcd60e51b8152602060048201526016602482015275135a5b195cdd1bdb9948185b1c9958591e481c185a5960521b60448201526064016103ea565b6003810154600160801b90046001600160401b031642116126915760405162461bcd60e51b815260206004820152601b60248201527f446561646c696e6520686173206e6f742070617373656420796574000000000060448201526064016103ea565b6002810154600382018054600160c81b60ff60c81b199091161790558254600160801b9091046001600160801b0316906126f8906001600160a01b037f0000000000000000000000000000000000000000000000000000000000000000811691168361274c565b604080518581526020810183905286917fca3982579f223c7a704b8ff49a8f061cf6cb82587e33e616ca7f042f6f2c9e289101611893565b61273861283f565b6002600080516020612fea83398151915255565b612759838383600161286f565b61278157604051635274afe760e01b81526001600160a01b03841660048201526024016103ea565b505050565b6000546001600160a01b0316331461146f5760405163118cdaa760e01b81523360048201526024016103ea565b6127c18484848460016128d5565b6127e957604051635274afe760e01b81526001600160a01b03851660048201526024016103ea565b50505050565b600080546001600160a01b038381166001600160a01b0319831681178455604051919092169283917f8be0079c531659141344cd1fd0a4f28419497f9722a3daafe3b4186f6b6457e09190a35050565b600080516020612fea8339815191525460020361146f57604051633ee5aeb560e01b815260040160405180910390fd5b60405163a9059cbb60e01b60008181526001600160a01b038616600452602485905291602083604481808b5af1925060016000511483166128c95783831516156128bc573d6000823e3d81fd5b6000873b113d1516831692505b60405250949350505050565b6040516323b872dd60e01b60008181526001600160a01b038781166004528616602452604485905291602083606481808c5af192506001600051148316612935578383151615612928573d6000823e3d81fd5b6000883b113d1516831692505b60405250600060605295945050505050565b60006020828403121561295957600080fd5b5035919050565b6000806040838503121561297357600080fd5b50508035926020909101359150565b6000815180845260005b818110156129a85760208185018101518683018201520161298c565b506000602082860101526020601f19601f83011685010191505092915050565b60006101008083526129dc8184018c612982565b905082810360208401526129f0818b612982565b6001600160801b03998a166040850152978916606084015250509390951660808401526001600160401b039190911660a0830152151560c082015291151560e09092019190915292915050565b60008060408385031215612a5057600080fd5b8235915060208301358015158114612a6757600080fd5b809150509250929050565b60006020808301818452808551808352604092508286019150828160051b87010184880160005b83811015612b5757603f1989840301855281516101008151818652612ac082870182612982565b915050888201518582038a870152612ad88282612982565b9150506001600160801b03888301511688860152606080830151612b06828801826001600160801b03169052565b50506080828101516001600160801b03169086015260a0808301516001600160401b03169086015260c08083015115159086015260e091820151151591909401529386019390860190600101612a99565b509098975050505050505050565b80356001600160801b0381168114612b7c57600080fd5b919050565b600080600060608486031215612b9657600080fd5b8335925060208401359150612bad60408501612b65565b90509250925092565b80356001600160a01b0381168114612b7c57600080fd5b60008060008060608587031215612be357600080fd5b612bec85612bb6565b93506020850135925060408501356001600160401b0380821115612c0f57600080fd5b818701915087601f830112612c2357600080fd5b813581811115612c3257600080fd5b8860208260051b8501011115612c4757600080fd5b95989497505060200194505050565b600060208284031215612c6857600080fd5b612c7182612bb6565b9392505050565b60208082526017908201527f43616d706169676e20646f6573206e6f74206578697374000000000000000000604082015260600190565b60208082526019908201527f43616d706169676e20697320756e646572206469737075746500000000000000604082015260600190565b60208082526019908201527f43616d706169676e20616c7265616479207265736f6c76656400000000000000604082015260600190565b634e487b7160e01b600052603260045260246000fd5b634e487b7160e01b600052601160045260246000fd5b808201808211156109a0576109a0612d33565b60208082526017908201527f496e76616c6964206d696c6573746f6e6520696e646578000000000000000000604082015260600190565b634e487b7160e01b600052601260045260246000fd5b600181811c90821680612dbd57607f821691505b602082108103612ddd57634e487b7160e01b600052602260045260246000fd5b50919050565b600060208284031215612df557600080fd5b5051919050565b6000823560fe19833603018112612e1257600080fd5b9190910192915050565b600060208284031215612e2e57600080fd5b612c7182612b65565b600060208284031215612e4957600080fd5b81356001600160401b0381168114612c7157600080fd5b600060018201612e7257612e72612d33565b5060010190565b6000808335601e19843603018112612e9057600080fd5b8301803591506001600160401b03821115612eaa57600080fd5b602001915036819003821315612ebf57600080fd5b9250929050565b634e487b7160e01b600052604160045260246000fd5b601f82111561278157600081815260208120601f850160051c81016020861015612f035750805b601f850160051c820191505b81811015612f2257828155600101612f0f565b505050505050565b81516001600160401b03811115612f4357612f43612ec6565b612f5781612f518454612da9565b84612edc565b602080601f831160018114612f8c5760008415612f745750858301515b600019600386901b1c1916600185901b178555612f22565b600085815260208120601f198616915b82811015612fbb57888601518255948401946001909101908401612f9c565b5085821015612fd95787850151600019600388901b60f8161c191681555b5050505050600190811b0190555056fe9b779b17422d0df92223018b32b4d1fa46e071723d6817e2486d003becc55f00a264697066735822122094d9ea7e22b28c636d6509a2db23f1230d80ca35a146ea7d6fc23f6af600d2bc64736f6c63430008140033",
  "linkReferences": {},
  "deployedLinkReferences": {}
}